{
  "contractName": "Farmer",
  "abi": [
    {
      "inputs": [
        {
          "internalType": "address",
          "name": "animal",
          "type": "address"
        },
        {
          "internalType": "string",
          "name": "food",
          "type": "string"
        }
      ],
      "name": "feed",
      "outputs": [
        {
          "internalType": "string",
          "name": "",
          "type": "string"
        }
      ],
      "stateMutability": "view",
      "type": "function",
      "constant": true
    },
    {
      "inputs": [
        {
          "internalType": "address",
          "name": "animal",
          "type": "address"
        }
      ],
      "name": "call",
      "outputs": [
        {
          "internalType": "string",
          "name": "",
          "type": "string"
        }
      ],
      "stateMutability": "view",
      "type": "function",
      "constant": true
    }
  ],
  "bytecode": "0x608060405234801561001057600080fd5b50610572806100206000396000f3fe608060405234801561001057600080fd5b50600436106100365760003560e01c8063337612db1461003b578063f55332ab1461006b575b600080fd5b61005560048036038101906100509190610359565b61009b565b6040516100629190610434565b60405180910390f35b61008560048036038101906100809190610456565b610124565b6040516100929190610434565b60405180910390f35b60608273ffffffffffffffffffffffffffffffffffffffff1663728d9b74836040518263ffffffff1660e01b81526004016100d69190610434565b600060405180830381865afa1580156100f3573d6000803e3d6000fd5b505050506040513d6000823e3d601f19601f8201168201806040525081019061011c91906104f3565b905092915050565b60608173ffffffffffffffffffffffffffffffffffffffff166350d853156040518163ffffffff1660e01b8152600401600060405180830381865afa158015610171573d6000803e3d6000fd5b505050506040513d6000823e3d601f19601f8201168201806040525081019061019a91906104f3565b9050919050565b6000604051905090565b600080fd5b600080fd5b600073ffffffffffffffffffffffffffffffffffffffff82169050919050565b60006101e0826101b5565b9050919050565b6101f0816101d5565b81146101fb57600080fd5b50565b60008135905061020d816101e7565b92915050565b600080fd5b600080fd5b6000601f19601f8301169050919050565b7f4e487b7100000000000000000000000000000000000000000000000000000000600052604160045260246000fd5b6102668261021d565b810181811067ffffffffffffffff821117156102855761028461022e565b5b80604052505050565b60006102986101a1565b90506102a4828261025d565b919050565b600067ffffffffffffffff8211156102c4576102c361022e565b5b6102cd8261021d565b9050602081019050919050565b82818337600083830152505050565b60006102fc6102f7846102a9565b61028e565b90508281526020810184848401111561031857610317610218565b5b6103238482856102da565b509392505050565b600082601f8301126103405761033f610213565b5b81356103508482602086016102e9565b91505092915050565b600080604083850312156103705761036f6101ab565b5b600061037e858286016101fe565b925050602083013567ffffffffffffffff81111561039f5761039e6101b0565b5b6103ab8582860161032b565b9150509250929050565b600081519050919050565b600082825260208201905092915050565b60005b838110156103ef5780820151818401526020810190506103d4565b60008484015250505050565b6000610406826103b5565b61041081856103c0565b93506104208185602086016103d1565b6104298161021d565b840191505092915050565b6000602082019050818103600083015261044e81846103fb565b905092915050565b60006020828403121561046c5761046b6101ab565b5b600061047a848285016101fe565b91505092915050565b6000610496610491846102a9565b61028e565b9050828152602081018484840111156104b2576104b1610218565b5b6104bd8482856103d1565b509392505050565b600082601f8301126104da576104d9610213565b5b81516104ea848260208601610483565b91505092915050565b600060208284031215610509576105086101ab565b5b600082015167ffffffffffffffff811115610527576105266101b0565b5b610533848285016104c5565b9150509291505056fea264697066735822122039e986757d5901a102d85215f14f901e097e20e2630383a5852a4c809bbcac4b64736f6c63430008130033",
  "immutableReferences": {},
  "source": "pragma solidity 0.8.19;\n\ninterface Living{\n    function eat(string memory food) external returns(string memory);\n}\n\ncontract HasName{\n    string internal _name;\n    constructor(string memory name){\n        _name=name;\n    }\n\n    function getName() view public returns(string memory){\n        return _name;\n    }\n}\n\nabstract contract Animal is Living{\n    \n    function eat(string memory food) view virtual public returns(string memory){\n        return string.concat(string.concat(\"Animal eats \",food));\n    }\n\n    function sleep() view public returns(string memory){\n        return \"Z-z-z...\";\n    }\n\n    function speak() view virtual public returns(string memory){\n        return \"...\";\n    }\n}\n\nlibrary StringComparer{\n    function compare(string memory str1, string memory str2) public pure returns (bool) {\n        return keccak256(abi.encodePacked(str1)) == keccak256(abi.encodePacked(str2));\n    }\n}\n\nabstract contract Herbivore is Animal, HasName{\n    string constant PLANT = \"plant\";\n\n    modifier eatOnlyPlant(string memory food){\n        require(StringComparer.compare(food,PLANT),\"Can only eat plant food\");\n        _;\n    }\n\n    function eat(string memory food) view virtual override public eatOnlyPlant(food) returns(string memory){\n        return super.eat(food);        \n    }\n}\n\ncontract Cow is Herbivore{\n\n    constructor(string memory name) HasName(name){\n    }\n\n    function speak() view override public returns(string memory){\n        return \"Mooo\";\n    }\n}\n\ncontract Horse is Herbivore{\n\n    constructor(string memory name) HasName(name){\n    }\n\n    function speak() view override public returns(string memory){\n        return \"Igogo\";\n    }\n\n}\n\ncontract Wolf is Animal{\n    string constant MEAT = \"meat\";\n    // ... wolves do not eat plants. How can farmer feed wolf?\n    function speak() view override public returns(string memory){\n        return \"Awoo\";\n    }\n\n    function eat(string memory food) view override public returns(string memory){\n        require(StringComparer.compare(food,MEAT),\"Can only eat meat food\");\n        return \"R-R-R... Nya-Nyam\";      \n\n    }\n}\n\ncontract Dog is Animal{\n    string constant MEAT = \"meat\";\n    string constant PLANT = \"plant\";\n    // ... wolves do not eat plants. How can farmer feed wolf?\n    function speak() view virtual override public returns(string memory){\n        return \"Woof\";\n    }\n\n    function eat(string memory food) view override public returns(string memory){\n        if(StringComparer.compare(food,MEAT)){\n            return \"R-R-R... Nya-Nyam\"; \n        } else if(StringComparer.compare(food,PLANT)){\n            return \"R-R-R... Nya-Nyam\";\n        }      \n        return \"Can only eat meat or plant food\";      \n\n    }\n}\n\ncontract Farmer{\n    function feed(address animal, string memory food) view public returns(string memory){\n        return Animal(animal).eat(food);\n    } \n\n    function call(address animal) view public returns(string memory){\n        return Animal(animal).speak();\n    }\n}\n\n\n",
  "sourcePath": "C:\\dev\\DZ15\\contracts\\9DZ_.sol",
  "compiler": {
    "name": "solc",
    "version": "0.8.19+commit.7dd6d404.Emscripten.clang"
  },
  "schemaVersion": "3.4.13",
  "updatedAt": "2023-03-19T13:06:55.371Z",
  "networkType": "ethereum",
  "devdoc": {
    "kind": "dev",
    "methods": {},
    "version": 1
  },
  "userdoc": {
    "kind": "user",
    "methods": {},
    "version": 1
  }
}