{
  "contractName": "Wolf",
  "abi": [
    {
      "inputs": [],
      "name": "sleep",
      "outputs": [
        {
          "internalType": "string",
          "name": "",
          "type": "string"
        }
      ],
      "stateMutability": "view",
      "type": "function",
      "constant": true
    },
    {
      "inputs": [],
      "name": "speak",
      "outputs": [
        {
          "internalType": "string",
          "name": "",
          "type": "string"
        }
      ],
      "stateMutability": "view",
      "type": "function",
      "constant": true
    },
    {
      "inputs": [
        {
          "internalType": "string",
          "name": "food",
          "type": "string"
        }
      ],
      "name": "eat",
      "outputs": [
        {
          "internalType": "string",
          "name": "",
          "type": "string"
        }
      ],
      "stateMutability": "view",
      "type": "function",
      "constant": true
    }
  ],
  "bytecode": "0x608060405234801561001057600080fd5b50610625806100206000396000f3fe608060405234801561001057600080fd5b50600436106100415760003560e01c8063133a473e1461004657806350d8531514610064578063728d9b7414610082575b600080fd5b61004e6100b2565b60405161005b91906102e9565b60405180910390f35b61006c6100ef565b60405161007991906102e9565b60405180910390f35b61009c60048036038101906100979190610454565b61012c565b6040516100a991906102e9565b60405180910390f35b60606040518060400160405280600881526020017f5a2d7a2d7a2e2e2e000000000000000000000000000000000000000000000000815250905090565b60606040518060400160405280600481526020017f41776f6f00000000000000000000000000000000000000000000000000000000815250905090565b606073__StringComparer________________________633a96fdd7836040518060400160405280600481526020017f6d656174000000000000000000000000000000000000000000000000000000008152506040518363ffffffff1660e01b815260040161019c9291906104e7565b602060405180830381865af41580156101b9573d6000803e3d6000fd5b505050506040513d601f19601f820116820180604052508101906101dd9190610556565b61021c576040517f08c379a0000000000000000000000000000000000000000000000000000000008152600401610213906105cf565b60405180910390fd5b6040518060400160405280601181526020017f522d522d522e2e2e204e79612d4e79616d0000000000000000000000000000008152509050919050565b600081519050919050565b600082825260208201905092915050565b60005b83811015610293578082015181840152602081019050610278565b60008484015250505050565b6000601f19601f8301169050919050565b60006102bb82610259565b6102c58185610264565b93506102d5818560208601610275565b6102de8161029f565b840191505092915050565b6000602082019050818103600083015261030381846102b0565b905092915050565b6000604051905090565b600080fd5b600080fd5b600080fd5b600080fd5b7f4e487b7100000000000000000000000000000000000000000000000000000000600052604160045260246000fd5b6103618261029f565b810181811067ffffffffffffffff821117156103805761037f610329565b5b80604052505050565b600061039361030b565b905061039f8282610358565b919050565b600067ffffffffffffffff8211156103bf576103be610329565b5b6103c88261029f565b9050602081019050919050565b82818337600083830152505050565b60006103f76103f2846103a4565b610389565b90508281526020810184848401111561041357610412610324565b5b61041e8482856103d5565b509392505050565b600082601f83011261043b5761043a61031f565b5b813561044b8482602086016103e4565b91505092915050565b60006020828403121561046a57610469610315565b5b600082013567ffffffffffffffff8111156104885761048761031a565b5b61049484828501610426565b91505092915050565b600082825260208201905092915050565b60006104b982610259565b6104c3818561049d565b93506104d3818560208601610275565b6104dc8161029f565b840191505092915050565b6000604082019050818103600083015261050181856104ae565b9050818103602083015261051581846104ae565b90509392505050565b60008115159050919050565b6105338161051e565b811461053e57600080fd5b50565b6000815190506105508161052a565b92915050565b60006020828403121561056c5761056b610315565b5b600061057a84828501610541565b91505092915050565b7f43616e206f6e6c7920656174206d65617420666f6f6400000000000000000000600082015250565b60006105b9601683610264565b91506105c482610583565b602082019050919050565b600060208201905081810360008301526105e8816105ac565b905091905056fea26469706673582212208fab8fd1d03b986465c43759b98dee8808d68c42703884c31a7ae0340f00c40164736f6c63430008130033",
  "immutableReferences": {},
  "source": "pragma solidity 0.8.19;\n\ninterface Living{\n    function eat(string memory food) external returns(string memory);\n}\n\ncontract HasName{\n    string internal _name;\n    constructor(string memory name){\n        _name=name;\n    }\n\n    function getName() view public returns(string memory){\n        return _name;\n    }\n}\n\nabstract contract Animal is Living{\n    \n    function eat(string memory food) view virtual public returns(string memory){\n        return string.concat(string.concat(\"Animal eats \",food));\n    }\n\n    function sleep() view public returns(string memory){\n        return \"Z-z-z...\";\n    }\n\n    function speak() view virtual public returns(string memory){\n        return \"...\";\n    }\n}\n\nlibrary StringComparer{\n    function compare(string memory str1, string memory str2) public pure returns (bool) {\n        return keccak256(abi.encodePacked(str1)) == keccak256(abi.encodePacked(str2));\n    }\n}\n\nabstract contract Herbivore is Animal, HasName{\n    string constant PLANT = \"plant\";\n\n    modifier eatOnlyPlant(string memory food){\n        require(StringComparer.compare(food,PLANT),\"Can only eat plant food\");\n        _;\n    }\n\n    function eat(string memory food) view virtual override public eatOnlyPlant(food) returns(string memory){\n        return super.eat(food);        \n    }\n}\n\ncontract Cow is Herbivore{\n\n    constructor(string memory name) HasName(name){\n    }\n\n    function speak() view override public returns(string memory){\n        return \"Mooo\";\n    }\n}\n\ncontract Horse is Herbivore{\n\n    constructor(string memory name) HasName(name){\n    }\n\n    function speak() view override public returns(string memory){\n        return \"Igogo\";\n    }\n\n}\n\ncontract Wolf is Animal{\n    string constant MEAT = \"meat\";\n    // ... wolves do not eat plants. How can farmer feed wolf?\n    function speak() view override public returns(string memory){\n        return \"Awoo\";\n    }\n\n    function eat(string memory food) view override public returns(string memory){\n        require(StringComparer.compare(food,MEAT),\"Can only eat meat food\");\n        return \"R-R-R... Nya-Nyam\";      \n\n    }\n}\n\ncontract Dog is Animal{\n    string constant MEAT = \"meat\";\n    string constant PLANT = \"plant\";\n    // ... wolves do not eat plants. How can farmer feed wolf?\n    function speak() view virtual override public returns(string memory){\n        return \"Woof\";\n    }\n\n    function eat(string memory food) view override public returns(string memory){\n        if(StringComparer.compare(food,MEAT)){\n            return \"R-R-R... Nya-Nyam\"; \n        } else if(StringComparer.compare(food,PLANT)){\n            return \"R-R-R... Nya-Nyam\";\n        }      \n        return \"Can only eat meat or plant food\";      \n\n    }\n}\n\ncontract Farmer{\n    function feed(address animal, string memory food) view public returns(string memory){\n        return Animal(animal).eat(food);\n    } \n\n    function call(address animal) view public returns(string memory){\n        return Animal(animal).speak();\n    }\n}\n\n\n",
  "sourcePath": "C:\\dev\\DZ15\\contracts\\9DZ_.sol",
  "compiler": {
    "name": "solc",
    "version": "0.8.19+commit.7dd6d404.Emscripten.clang"
  },
  "schemaVersion": "3.4.13",
  "updatedAt": "2023-03-19T13:06:55.379Z",
  "networkType": "ethereum",
  "devdoc": {
    "kind": "dev",
    "methods": {},
    "version": 1
  },
  "userdoc": {
    "kind": "user",
    "methods": {},
    "version": 1
  }
}